{
  "_format": "hh-sol-artifact-1",
  "contractName": "WavePortal",
  "sourceName": "contracts/WavePortal.sol",
  "abi": [
    {
      "inputs": [],
      "stateMutability": "payable",
      "type": "constructor"
    },
    {
      "anonymous": false,
      "inputs": [
        {
          "indexed": true,
          "internalType": "address",
          "name": "from",
          "type": "address"
        },
        {
          "indexed": false,
          "internalType": "uint256",
          "name": "timestamp",
          "type": "uint256"
        },
        {
          "indexed": false,
          "internalType": "string",
          "name": "message",
          "type": "string"
        },
        {
          "indexed": false,
          "internalType": "string",
          "name": "ipfsHash",
          "type": "string"
        }
      ],
      "name": "NewWave",
      "type": "event"
    },
    {
      "inputs": [],
      "name": "getAllWaves",
      "outputs": [
        {
          "components": [
            {
              "internalType": "address",
              "name": "waver",
              "type": "address"
            },
            {
              "internalType": "string",
              "name": "message",
              "type": "string"
            },
            {
              "internalType": "uint256",
              "name": "timestamp",
              "type": "uint256"
            },
            {
              "internalType": "string",
              "name": "ipfsHash",
              "type": "string"
            }
          ],
          "internalType": "struct WavePortal.Wave[]",
          "name": "",
          "type": "tuple[]"
        }
      ],
      "stateMutability": "view",
      "type": "function"
    },
    {
      "inputs": [],
      "name": "getTotalWaves",
      "outputs": [
        {
          "internalType": "uint256",
          "name": "",
          "type": "uint256"
        }
      ],
      "stateMutability": "view",
      "type": "function"
    },
    {
      "inputs": [
        {
          "internalType": "address",
          "name": "",
          "type": "address"
        }
      ],
      "name": "lastWavedAt",
      "outputs": [
        {
          "internalType": "uint256",
          "name": "",
          "type": "uint256"
        }
      ],
      "stateMutability": "view",
      "type": "function"
    },
    {
      "inputs": [
        {
          "internalType": "string",
          "name": "_message",
          "type": "string"
        },
        {
          "internalType": "string",
          "name": "_ipfsHash",
          "type": "string"
        }
      ],
      "name": "wave",
      "outputs": [],
      "stateMutability": "nonpayable",
      "type": "function"
    }
  ],
  "bytecode": "0x60806040526200004f6040518060400160405280601981526020017f57652068617665206265656e20636f6e737472756374656421000000000000008152506200007760201b620006bc1760201c565b606444426200005f9190620001c4565b6200006b919062000261565b60018190555062000308565b62000117816040516024016200008e919062000184565b6040516020818303038152906040527f41304fac000000000000000000000000000000000000000000000000000000007bffffffffffffffffffffffffffffffffffffffffffffffffffffffff19166020820180517bffffffffffffffffffffffffffffffffffffffffffffffffffffffff83818316178352505050506200011a60201b60201c565b50565b60008151905060006a636f6e736f6c652e6c6f679050602083016000808483855afa5050505050565b60006200015082620001a8565b6200015c8185620001b3565b93506200016e8185602086016200022b565b6200017981620002f7565b840191505092915050565b60006020820190508181036000830152620001a0818462000143565b905092915050565b600081519050919050565b600082825260208201905092915050565b6000620001d18262000221565b9150620001de8362000221565b9250827fffffffffffffffffffffffffffffffffffffffffffffffffffffffffffffffff0382111562000216576200021562000299565b5b828201905092915050565b6000819050919050565b60005b838110156200024b5780820151818401526020810190506200022e565b838111156200025b576000848401525b50505050565b60006200026e8262000221565b91506200027b8362000221565b9250826200028e576200028d620002c8565b5b828206905092915050565b7f4e487b7100000000000000000000000000000000000000000000000000000000600052601160045260246000fd5b7f4e487b7100000000000000000000000000000000000000000000000000000000600052601260045260246000fd5b6000601f19601f8301169050919050565b61112880620003186000396000f3fe608060405234801561001057600080fd5b506004361061004c5760003560e01c806351872959146100515780639a2cdc081461006d578063a42a46631461008b578063bd43a908146100bb575b600080fd5b61006b60048036038101906100669190610963565b6100d9565b005b6100756104b8565b6040516100829190610da5565b60405180910390f35b6100a560048036038101906100a0919061093a565b6104c1565b6040516100b29190610da5565b60405180910390f35b6100c36104d9565b6040516100d09190610cd1565b60405180910390f35b42601e600360003373ffffffffffffffffffffffffffffffffffffffff1673ffffffffffffffffffffffffffffffffffffffff168152602001908152602001600020546101269190610ed7565b10610166576040517f08c379a000000000000000000000000000000000000000000000000000000000815260040161015d90610d65565b60405180910390fd5b42600360003373ffffffffffffffffffffffffffffffffffffffff1673ffffffffffffffffffffffffffffffffffffffff1681526020019081526020016000208190555060016000808282546101bc9190610ed7565b925050819055506102026040518060400160405280600d81526020017f257320686173207761766564210000000000000000000000000000000000000081525033610755565b600260405180608001604052803373ffffffffffffffffffffffffffffffffffffffff16815260200184815260200142815260200183815250908060018154018082558091505060019003906000526020600020906004020160009091909190915060008201518160000160006101000a81548173ffffffffffffffffffffffffffffffffffffffff021916908373ffffffffffffffffffffffffffffffffffffffff16021790555060208201518160010190805190602001906102c792919061081a565b506040820151816002015560608201518160030190805190602001906102ee92919061081a565b505050606460015442446103029190610ed7565b61030c9190610ed7565b6103169190610fdd565b600181905550603260015411610462576103656040518060400160405280600781526020017f257320776f6e210000000000000000000000000000000000000000000000000081525033610755565b6000655af3107a40009050478111156103b3576040517f08c379a00000000000000000000000000000000000000000000000000000000081526004016103aa90610d85565b60405180910390fd5b60003373ffffffffffffffffffffffffffffffffffffffff16826040516103d990610cbc565b60006040518083038185875af1925050503d8060008114610416576040519150601f19603f3d011682016040523d82523d6000602084013e61041b565b606091505b505090508061045f576040517f08c379a000000000000000000000000000000000000000000000000000000000815260040161045690610d45565b60405180910390fd5b50505b3373ffffffffffffffffffffffffffffffffffffffff167f0646f10b0148fe8db9a43af10b6956b53e1478c47afc7132c17e243449dfd3394284846040516104ac93929190610dc0565b60405180910390a25050565b60008054905090565b60036020528060005260406000206000915090505481565b60606002805480602002602001604051908101604052809291908181526020016000905b828210156106b357838290600052602060002090600402016040518060800160405290816000820160009054906101000a900473ffffffffffffffffffffffffffffffffffffffff1673ffffffffffffffffffffffffffffffffffffffff1673ffffffffffffffffffffffffffffffffffffffff16815260200160018201805461058690610fab565b80601f01602080910402602001604051908101604052809291908181526020018280546105b290610fab565b80156105ff5780601f106105d4576101008083540402835291602001916105ff565b820191906000526020600020905b8154815290600101906020018083116105e257829003601f168201915b505050505081526020016002820154815260200160038201805461062290610fab565b80601f016020809104026020016040519081016040528092919081815260200182805461064e90610fab565b801561069b5780601f106106705761010080835404028352916020019161069b565b820191906000526020600020905b81548152906001019060200180831161067e57829003601f168201915b505050505081525050815260200190600101906104fd565b50505050905090565b610752816040516024016106d09190610cf3565b6040516020818303038152906040527f41304fac000000000000000000000000000000000000000000000000000000007bffffffffffffffffffffffffffffffffffffffffffffffffffffffff19166020820180517bffffffffffffffffffffffffffffffffffffffffffffffffffffffff83818316178352505050506107f1565b50565b6107ed828260405160240161076b929190610d15565b6040516020818303038152906040527f319af333000000000000000000000000000000000000000000000000000000007bffffffffffffffffffffffffffffffffffffffffffffffffffffffff19166020820180517bffffffffffffffffffffffffffffffffffffffffffffffffffffffff83818316178352505050506107f1565b5050565b60008151905060006a636f6e736f6c652e6c6f679050602083016000808483855afa5050505050565b82805461082690610fab565b90600052602060002090601f016020900481019282610848576000855561088f565b82601f1061086157805160ff191683800117855561088f565b8280016001018555821561088f579182015b8281111561088e578251825591602001919060010190610873565b5b50905061089c91906108a0565b5090565b5b808211156108b95760008160009055506001016108a1565b5090565b60006108d06108cb84610e36565b610e05565b9050828152602081018484840111156108e857600080fd5b6108f3848285610f69565b509392505050565b60008135905061090a816110db565b92915050565b600082601f83011261092157600080fd5b81356109318482602086016108bd565b91505092915050565b60006020828403121561094c57600080fd5b600061095a848285016108fb565b91505092915050565b6000806040838503121561097657600080fd5b600083013567ffffffffffffffff81111561099057600080fd5b61099c85828601610910565b925050602083013567ffffffffffffffff8111156109b957600080fd5b6109c585828601610910565b9150509250929050565b60006109db8383610c34565b905092915050565b6109ec81610f2d565b82525050565b6109fb81610f2d565b82525050565b6000610a0c82610e76565b610a168185610e99565b935083602082028501610a2885610e66565b8060005b85811015610a645784840389528151610a4585826109cf565b9450610a5083610e8c565b925060208a01995050600181019050610a2c565b50829750879550505050505092915050565b6000610a8182610e81565b610a8b8185610eb5565b9350610a9b818560208601610f78565b610aa4816110ca565b840191505092915050565b6000610aba82610e81565b610ac48185610ec6565b9350610ad4818560208601610f78565b610add816110ca565b840191505092915050565b6000610af5602783610ec6565b91507f4661696c656420746f207769746864726177206d6f6e65792066726f6d20636f60008301527f6e74726163742e000000000000000000000000000000000000000000000000006020830152604082019050919050565b6000610b5b602983610ec6565b91507f4d7573742077616974203330207365636f6e6473206265666f7265207761766960008301527f6e6720616761696e2e00000000000000000000000000000000000000000000006020830152604082019050919050565b6000610bc1603583610ec6565b91507f547279696e6720746f207769746864726177206d6f7265206d6f6e657920746860008301527f616e207468657920636f6e7472616374206861732e00000000000000000000006020830152604082019050919050565b6000610c27600083610eaa565b9150600082019050919050565b6000608083016000830151610c4c60008601826109e3565b5060208301518482036020860152610c648282610a76565b9150506040830151610c796040860182610c9e565b5060608301518482036060860152610c918282610a76565b9150508091505092915050565b610ca781610f5f565b82525050565b610cb681610f5f565b82525050565b6000610cc782610c1a565b9150819050919050565b60006020820190508181036000830152610ceb8184610a01565b905092915050565b60006020820190508181036000830152610d0d8184610aaf565b905092915050565b60006040820190508181036000830152610d2f8185610aaf565b9050610d3e60208301846109f2565b9392505050565b60006020820190508181036000830152610d5e81610ae8565b9050919050565b60006020820190508181036000830152610d7e81610b4e565b9050919050565b60006020820190508181036000830152610d9e81610bb4565b9050919050565b6000602082019050610dba6000830184610cad565b92915050565b6000606082019050610dd56000830186610cad565b8181036020830152610de78185610aaf565b90508181036040830152610dfb8184610aaf565b9050949350505050565b6000604051905081810181811067ffffffffffffffff82111715610e2c57610e2b61109b565b5b8060405250919050565b600067ffffffffffffffff821115610e5157610e5061109b565b5b601f19601f8301169050602081019050919050565b6000819050602082019050919050565b600081519050919050565b600081519050919050565b6000602082019050919050565b600082825260208201905092915050565b600081905092915050565b600082825260208201905092915050565b600082825260208201905092915050565b6000610ee282610f5f565b9150610eed83610f5f565b9250827fffffffffffffffffffffffffffffffffffffffffffffffffffffffffffffffff03821115610f2257610f2161100e565b5b828201905092915050565b6000610f3882610f3f565b9050919050565b600073ffffffffffffffffffffffffffffffffffffffff82169050919050565b6000819050919050565b82818337600083830152505050565b60005b83811015610f96578082015181840152602081019050610f7b565b83811115610fa5576000848401525b50505050565b60006002820490506001821680610fc357607f821691505b60208210811415610fd757610fd661106c565b5b50919050565b6000610fe882610f5f565b9150610ff383610f5f565b9250826110035761100261103d565b5b828206905092915050565b7f4e487b7100000000000000000000000000000000000000000000000000000000600052601160045260246000fd5b7f4e487b7100000000000000000000000000000000000000000000000000000000600052601260045260246000fd5b7f4e487b7100000000000000000000000000000000000000000000000000000000600052602260045260246000fd5b7f4e487b7100000000000000000000000000000000000000000000000000000000600052604160045260246000fd5b6000601f19601f8301169050919050565b6110e481610f2d565b81146110ef57600080fd5b5056fea264697066735822122021258bbbb5626348d41facd0065b8fea38778018ba551054ca1142f44782768964736f6c63430008000033",
  "linkReferences": {},
  "deployedLinkReferences": {}
}